{
  "_format": "hh-sol-artifact-1",
  "contractName": "NFTMarketplace",
  "sourceName": "contracts/NFTMarketplace.sol",
  "abi": [
    {
      "inputs": [],
      "stateMutability": "nonpayable",
      "type": "constructor"
    },
    {
      "anonymous": false,
      "inputs": [
        {
          "indexed": true,
          "internalType": "address",
          "name": "owner",
          "type": "address"
        },
        {
          "indexed": true,
          "internalType": "address",
          "name": "approved",
          "type": "address"
        },
        {
          "indexed": true,
          "internalType": "uint256",
          "name": "tokenId",
          "type": "uint256"
        }
      ],
      "name": "Approval",
      "type": "event"
    },
    {
      "anonymous": false,
      "inputs": [
        {
          "indexed": true,
          "internalType": "address",
          "name": "owner",
          "type": "address"
        },
        {
          "indexed": true,
          "internalType": "address",
          "name": "operator",
          "type": "address"
        },
        {
          "indexed": false,
          "internalType": "bool",
          "name": "approved",
          "type": "bool"
        }
      ],
      "name": "ApprovalForAll",
      "type": "event"
    },
    {
      "anonymous": false,
      "inputs": [
        {
          "indexed": true,
          "internalType": "uint256",
          "name": "tokenId",
          "type": "uint256"
        },
        {
          "indexed": false,
          "internalType": "address",
          "name": "seller",
          "type": "address"
        },
        {
          "indexed": false,
          "internalType": "address",
          "name": "owner",
          "type": "address"
        },
        {
          "indexed": false,
          "internalType": "uint256",
          "name": "price",
          "type": "uint256"
        },
        {
          "indexed": false,
          "internalType": "bool",
          "name": "sold",
          "type": "bool"
        }
      ],
      "name": "MarketItemCreated",
      "type": "event"
    },
    {
      "anonymous": false,
      "inputs": [
        {
          "indexed": true,
          "internalType": "address",
          "name": "from",
          "type": "address"
        },
        {
          "indexed": true,
          "internalType": "address",
          "name": "to",
          "type": "address"
        },
        {
          "indexed": true,
          "internalType": "uint256",
          "name": "tokenId",
          "type": "uint256"
        }
      ],
      "name": "Transfer",
      "type": "event"
    },
    {
      "inputs": [
        {
          "internalType": "address",
          "name": "to",
          "type": "address"
        },
        {
          "internalType": "uint256",
          "name": "tokenId",
          "type": "uint256"
        }
      ],
      "name": "approve",
      "outputs": [],
      "stateMutability": "nonpayable",
      "type": "function"
    },
    {
      "inputs": [
        {
          "internalType": "address",
          "name": "owner",
          "type": "address"
        }
      ],
      "name": "balanceOf",
      "outputs": [
        {
          "internalType": "uint256",
          "name": "",
          "type": "uint256"
        }
      ],
      "stateMutability": "view",
      "type": "function"
    },
    {
      "inputs": [
        {
          "internalType": "uint256",
          "name": "tokenId",
          "type": "uint256"
        }
      ],
      "name": "createMarketSale",
      "outputs": [],
      "stateMutability": "payable",
      "type": "function"
    },
    {
      "inputs": [
        {
          "internalType": "string",
          "name": "tokenURI",
          "type": "string"
        },
        {
          "internalType": "uint256",
          "name": "price",
          "type": "uint256"
        }
      ],
      "name": "createToken",
      "outputs": [
        {
          "internalType": "uint256",
          "name": "",
          "type": "uint256"
        }
      ],
      "stateMutability": "payable",
      "type": "function"
    },
    {
      "inputs": [],
      "name": "fetchItemsListed",
      "outputs": [
        {
          "components": [
            {
              "internalType": "uint256",
              "name": "tokenId",
              "type": "uint256"
            },
            {
              "internalType": "address payable",
              "name": "seller",
              "type": "address"
            },
            {
              "internalType": "address payable",
              "name": "owner",
              "type": "address"
            },
            {
              "internalType": "uint256",
              "name": "price",
              "type": "uint256"
            },
            {
              "internalType": "bool",
              "name": "sold",
              "type": "bool"
            }
          ],
          "internalType": "struct NFTMarketplace.MarketItem[]",
          "name": "",
          "type": "tuple[]"
        }
      ],
      "stateMutability": "view",
      "type": "function"
    },
    {
      "inputs": [],
      "name": "fetchMarketItems",
      "outputs": [
        {
          "components": [
            {
              "internalType": "uint256",
              "name": "tokenId",
              "type": "uint256"
            },
            {
              "internalType": "address payable",
              "name": "seller",
              "type": "address"
            },
            {
              "internalType": "address payable",
              "name": "owner",
              "type": "address"
            },
            {
              "internalType": "uint256",
              "name": "price",
              "type": "uint256"
            },
            {
              "internalType": "bool",
              "name": "sold",
              "type": "bool"
            }
          ],
          "internalType": "struct NFTMarketplace.MarketItem[]",
          "name": "",
          "type": "tuple[]"
        }
      ],
      "stateMutability": "view",
      "type": "function"
    },
    {
      "inputs": [],
      "name": "fetchMyNFTS",
      "outputs": [
        {
          "components": [
            {
              "internalType": "uint256",
              "name": "tokenId",
              "type": "uint256"
            },
            {
              "internalType": "address payable",
              "name": "seller",
              "type": "address"
            },
            {
              "internalType": "address payable",
              "name": "owner",
              "type": "address"
            },
            {
              "internalType": "uint256",
              "name": "price",
              "type": "uint256"
            },
            {
              "internalType": "bool",
              "name": "sold",
              "type": "bool"
            }
          ],
          "internalType": "struct NFTMarketplace.MarketItem[]",
          "name": "",
          "type": "tuple[]"
        }
      ],
      "stateMutability": "view",
      "type": "function"
    },
    {
      "inputs": [
        {
          "internalType": "uint256",
          "name": "tokenId",
          "type": "uint256"
        }
      ],
      "name": "getApproved",
      "outputs": [
        {
          "internalType": "address",
          "name": "",
          "type": "address"
        }
      ],
      "stateMutability": "view",
      "type": "function"
    },
    {
      "inputs": [],
      "name": "getListingPrice",
      "outputs": [
        {
          "internalType": "uint256",
          "name": "",
          "type": "uint256"
        }
      ],
      "stateMutability": "view",
      "type": "function"
    },
    {
      "inputs": [
        {
          "internalType": "address",
          "name": "owner",
          "type": "address"
        },
        {
          "internalType": "address",
          "name": "operator",
          "type": "address"
        }
      ],
      "name": "isApprovedForAll",
      "outputs": [
        {
          "internalType": "bool",
          "name": "",
          "type": "bool"
        }
      ],
      "stateMutability": "view",
      "type": "function"
    },
    {
      "inputs": [],
      "name": "name",
      "outputs": [
        {
          "internalType": "string",
          "name": "",
          "type": "string"
        }
      ],
      "stateMutability": "view",
      "type": "function"
    },
    {
      "inputs": [
        {
          "internalType": "uint256",
          "name": "tokenId",
          "type": "uint256"
        }
      ],
      "name": "ownerOf",
      "outputs": [
        {
          "internalType": "address",
          "name": "",
          "type": "address"
        }
      ],
      "stateMutability": "view",
      "type": "function"
    },
    {
      "inputs": [
        {
          "internalType": "uint256",
          "name": "tokenId",
          "type": "uint256"
        },
        {
          "internalType": "uint256",
          "name": "price",
          "type": "uint256"
        }
      ],
      "name": "resellToken",
      "outputs": [],
      "stateMutability": "payable",
      "type": "function"
    },
    {
      "inputs": [
        {
          "internalType": "address",
          "name": "from",
          "type": "address"
        },
        {
          "internalType": "address",
          "name": "to",
          "type": "address"
        },
        {
          "internalType": "uint256",
          "name": "tokenId",
          "type": "uint256"
        }
      ],
      "name": "safeTransferFrom",
      "outputs": [],
      "stateMutability": "nonpayable",
      "type": "function"
    },
    {
      "inputs": [
        {
          "internalType": "address",
          "name": "from",
          "type": "address"
        },
        {
          "internalType": "address",
          "name": "to",
          "type": "address"
        },
        {
          "internalType": "uint256",
          "name": "tokenId",
          "type": "uint256"
        },
        {
          "internalType": "bytes",
          "name": "_data",
          "type": "bytes"
        }
      ],
      "name": "safeTransferFrom",
      "outputs": [],
      "stateMutability": "nonpayable",
      "type": "function"
    },
    {
      "inputs": [
        {
          "internalType": "address",
          "name": "operator",
          "type": "address"
        },
        {
          "internalType": "bool",
          "name": "approved",
          "type": "bool"
        }
      ],
      "name": "setApprovalForAll",
      "outputs": [],
      "stateMutability": "nonpayable",
      "type": "function"
    },
    {
      "inputs": [
        {
          "internalType": "bytes4",
          "name": "interfaceId",
          "type": "bytes4"
        }
      ],
      "name": "supportsInterface",
      "outputs": [
        {
          "internalType": "bool",
          "name": "",
          "type": "bool"
        }
      ],
      "stateMutability": "view",
      "type": "function"
    },
    {
      "inputs": [],
      "name": "symbol",
      "outputs": [
        {
          "internalType": "string",
          "name": "",
          "type": "string"
        }
      ],
      "stateMutability": "view",
      "type": "function"
    },
    {
      "inputs": [
        {
          "internalType": "uint256",
          "name": "tokenId",
          "type": "uint256"
        }
      ],
      "name": "tokenURI",
      "outputs": [
        {
          "internalType": "string",
          "name": "",
          "type": "string"
        }
      ],
      "stateMutability": "view",
      "type": "function"
    },
    {
      "inputs": [
        {
          "internalType": "address",
          "name": "from",
          "type": "address"
        },
        {
          "internalType": "address",
          "name": "to",
          "type": "address"
        },
        {
          "internalType": "uint256",
          "name": "tokenId",
          "type": "uint256"
        }
      ],
      "name": "transferFrom",
      "outputs": [],
      "stateMutability": "nonpayable",
      "type": "function"
    },
    {
      "inputs": [
        {
          "internalType": "uint256",
          "name": "_listingPrice",
          "type": "uint256"
        }
      ],
      "name": "updateListingPrice",
      "outputs": [],
      "stateMutability": "payable",
      "type": "function"
    }
  ],
  "bytecode": "0x60806040526658d15e176280006009553480156200001c57600080fd5b506040518060400160405280601081526020017f4d657461766572736520546f6b656e73000000000000000000000000000000008152506040518060400160405280600481526020017f4d455454000000000000000000000000000000000000000000000000000000008152508160009080519060200190620000a192919062000104565b508060019080519060200190620000ba92919062000104565b50505033600a60006101000a81548173ffffffffffffffffffffffffffffffffffffffff021916908373ffffffffffffffffffffffffffffffffffffffff16021790555062000219565b8280546200011290620001b4565b90600052602060002090601f01602090048101928262000136576000855562000182565b82601f106200015157805160ff191683800117855562000182565b8280016001018555821562000182579182015b828111156200018157825182559160200191906001019062000164565b5b50905062000191919062000195565b5090565b5b80821115620001b057600081600090555060010162000196565b5090565b60006002820490506001821680620001cd57607f821691505b60208210811415620001e457620001e3620001ea565b5b50919050565b7f4e487b7100000000000000000000000000000000000000000000000000000000600052602260045260246000fd5b613fdb80620002296000396000f3fe60806040526004361061012a5760003560e01c806370a08231116100ab578063ae677aa31161006f578063ae677aa3146103f9578063b88d4fde14610415578063be9af5361461043e578063c87b56dd1461045a578063e219fc7514610497578063e985e9c5146104b35761012a565b806370a082311461030d57806372b3b6201461034a5780637dc5dfcf1461037a57806395d89b41146103a5578063a22cb465146103d05761012a565b806312e85585116100f257806312e855851461022857806323b872dd1461025357806342842e0e1461027c57806345f8fa80146102a55780636352211e146102d05761012a565b806301ffc9a71461012f57806306fdde031461016c578063081812fc14610197578063095ea7b3146101d45780630f08efe0146101fd575b600080fd5b34801561013b57600080fd5b5061015660048036038101906101519190612b1b565b6104f0565b60405161016391906131f5565b60405180910390f35b34801561017857600080fd5b506101816105d2565b60405161018e9190613210565b60405180910390f35b3480156101a357600080fd5b506101be60048036038101906101b99190612bc1565b610664565b6040516101cb9190613127565b60405180910390f35b3480156101e057600080fd5b506101fb60048036038101906101f69190612adf565b6106e9565b005b34801561020957600080fd5b50610212610801565b60405161021f91906131d3565b60405180910390f35b34801561023457600080fd5b5061023d61098b565b60405161024a91906134f2565b60405180910390f35b34801561025f57600080fd5b5061027a600480360381019061027591906129d9565b610995565b005b34801561028857600080fd5b506102a3600480360381019061029e91906129d9565b6109f5565b005b3480156102b157600080fd5b506102ba610a15565b6040516102c791906131d3565b60405180910390f35b3480156102dc57600080fd5b506102f760048036038101906102f29190612bc1565b610c24565b6040516103049190613127565b60405180910390f35b34801561031957600080fd5b50610334600480360381019061032f9190612974565b610cd6565b60405161034191906134f2565b60405180910390f35b610364600480360381019061035f9190612b6d565b610d8e565b60405161037191906134f2565b60405180910390f35b34801561038657600080fd5b5061038f610dd0565b60405161039c91906131d3565b60405180910390f35b3480156103b157600080fd5b506103ba610fdf565b6040516103c79190613210565b60405180910390f35b3480156103dc57600080fd5b506103f760048036038101906103f29190612aa3565b611071565b005b610413600480360381019061040e9190612bc1565b611087565b005b34801561042157600080fd5b5061043c60048036038101906104379190612a28565b611121565b005b61045860048036038101906104539190612bc1565b611183565b005b34801561046657600080fd5b50610481600480360381019061047c9190612bc1565b6113bb565b60405161048e9190613210565b60405180910390f35b6104b160048036038101906104ac9190612bea565b61150d565b005b3480156104bf57600080fd5b506104da60048036038101906104d5919061299d565b611702565b6040516104e791906131f5565b60405180910390f35b60007f80ac58cd000000000000000000000000000000000000000000000000000000007bffffffffffffffffffffffffffffffffffffffffffffffffffffffff1916827bffffffffffffffffffffffffffffffffffffffffffffffffffffffff191614806105bb57507f5b5e139f000000000000000000000000000000000000000000000000000000007bffffffffffffffffffffffffffffffffffffffffffffffffffffffff1916827bffffffffffffffffffffffffffffffffffffffffffffffffffffffff1916145b806105cb57506105ca82611796565b5b9050919050565b6060600080546105e190613793565b80601f016020809104026020016040519081016040528092919081815260200182805461060d90613793565b801561065a5780601f1061062f5761010080835404028352916020019161065a565b820191906000526020600020905b81548152906001019060200180831161063d57829003601f168201915b5050505050905090565b600061066f82611800565b6106ae576040517f08c379a00000000000000000000000000000000000000000000000000000000081526004016106a590613432565b60405180910390fd5b6004600083815260200190815260200160002060009054906101000a900473ffffffffffffffffffffffffffffffffffffffff169050919050565b60006106f482610c24565b90508073ffffffffffffffffffffffffffffffffffffffff168373ffffffffffffffffffffffffffffffffffffffff161415610765576040517f08c379a000000000000000000000000000000000000000000000000000000000815260040161075c90613492565b60405180910390fd5b8073ffffffffffffffffffffffffffffffffffffffff1661078461186c565b73ffffffffffffffffffffffffffffffffffffffff1614806107b357506107b2816107ad61186c565b611702565b5b6107f2576040517f08c379a00000000000000000000000000000000000000000000000000000000081526004016107e990613332565b60405180910390fd5b6107fc8383611874565b505050565b6060600061080f600761192d565b9050600061081d600861192d565b610827600761192d565b6108319190613697565b90506000808267ffffffffffffffff811115610876577f4e487b7100000000000000000000000000000000000000000000000000000000600052604160045260246000fd5b6040519080825280602002602001820160405280156108af57816020015b61089c61273b565b8152602001906001900390816108945790505b50905060005b84811015610980573073ffffffffffffffffffffffffffffffffffffffff16600b60006001846108e59190613610565b815260200190815260200160002060020160009054906101000a900473ffffffffffffffffffffffffffffffffffffffff1673ffffffffffffffffffffffffffffffffffffffff16141561096d5760006001826109429190613610565b90506000600b600083815260200190815260200160002090506001856109689190613610565b945050505b8080610978906137f6565b9150506108b5565b508094505050505090565b6000600954905090565b6109a66109a061186c565b8261193b565b6109e5576040517f08c379a00000000000000000000000000000000000000000000000000000000081526004016109dc906134d2565b60405180910390fd5b6109f0838383611a19565b505050565b610a1083838360405180602001604052806000815250611121565b505050565b60606000610a23600761192d565b905060008060005b83811015610acc573373ffffffffffffffffffffffffffffffffffffffff16600b6000600184610a5b9190613610565b815260200190815260200160002060010160009054906101000a900473ffffffffffffffffffffffffffffffffffffffff1673ffffffffffffffffffffffffffffffffffffffff161415610ab957600183610ab69190613610565b92505b8080610ac4906137f6565b915050610a2b565b5060008267ffffffffffffffff811115610b0f577f4e487b7100000000000000000000000000000000000000000000000000000000600052604160045260246000fd5b604051908082528060200260200182016040528015610b4857816020015b610b3561273b565b815260200190600190039081610b2d5790505b50905060005b84811015610c19573373ffffffffffffffffffffffffffffffffffffffff16600b6000600184610b7e9190613610565b815260200190815260200160002060010160009054906101000a900473ffffffffffffffffffffffffffffffffffffffff1673ffffffffffffffffffffffffffffffffffffffff161415610c06576000600182610bdb9190613610565b90506000600b60008381526020019081526020016000209050600185610c019190613610565b945050505b8080610c11906137f6565b915050610b4e565b508094505050505090565b6000806002600084815260200190815260200160002060009054906101000a900473ffffffffffffffffffffffffffffffffffffffff169050600073ffffffffffffffffffffffffffffffffffffffff168173ffffffffffffffffffffffffffffffffffffffff161415610ccd576040517f08c379a0000000000000000000000000000000000000000000000000000000008152600401610cc490613372565b60405180910390fd5b80915050919050565b60008073ffffffffffffffffffffffffffffffffffffffff168273ffffffffffffffffffffffffffffffffffffffff161415610d47576040517f08c379a0000000000000000000000000000000000000000000000000000000008152600401610d3e90613352565b60405180910390fd5b600360008373ffffffffffffffffffffffffffffffffffffffff1673ffffffffffffffffffffffffffffffffffffffff168152602001908152602001600020549050919050565b6000610d9a6007611c80565b6000610da6600761192d565b9050610db23382611c96565b610dbc8185611e70565b610dc68184611ee4565b8091505092915050565b60606000610dde600761192d565b905060008060005b83811015610e87573373ffffffffffffffffffffffffffffffffffffffff16600b6000600184610e169190613610565b815260200190815260200160002060020160009054906101000a900473ffffffffffffffffffffffffffffffffffffffff1673ffffffffffffffffffffffffffffffffffffffff161415610e7457600183610e719190613610565b92505b8080610e7f906137f6565b915050610de6565b5060008267ffffffffffffffff811115610eca577f4e487b7100000000000000000000000000000000000000000000000000000000600052604160045260246000fd5b604051908082528060200260200182016040528015610f0357816020015b610ef061273b565b815260200190600190039081610ee85790505b50905060005b84811015610fd4573373ffffffffffffffffffffffffffffffffffffffff16600b6000600184610f399190613610565b815260200190815260200160002060020160009054906101000a900473ffffffffffffffffffffffffffffffffffffffff1673ffffffffffffffffffffffffffffffffffffffff161415610fc1576000600182610f969190613610565b90506000600b60008381526020019081526020016000209050600185610fbc9190613610565b945050505b8080610fcc906137f6565b915050610f09565b508094505050505090565b606060018054610fee90613793565b80601f016020809104026020016040519081016040528092919081815260200182805461101a90613793565b80156110675780601f1061103c57610100808354040283529160200191611067565b820191906000526020600020905b81548152906001019060200180831161104a57829003601f168201915b5050505050905090565b61108361107c61186c565b83836120e7565b5050565b3373ffffffffffffffffffffffffffffffffffffffff16600a60009054906101000a900473ffffffffffffffffffffffffffffffffffffffff1673ffffffffffffffffffffffffffffffffffffffff1614611117576040517f08c379a000000000000000000000000000000000000000000000000000000000815260040161110e906132b2565b60405180910390fd5b8060098190555050565b61113261112c61186c565b8361193b565b611171576040517f08c379a0000000000000000000000000000000000000000000000000000000008152600401611168906134d2565b60405180910390fd5b61117d84848484612254565b50505050565b6000600b60008381526020019081526020016000206003015490508034146111e0576040517f08c379a00000000000000000000000000000000000000000000000000000000081526004016111d7906133b2565b60405180910390fd5b33600b600084815260200190815260200160002060020160006101000a81548173ffffffffffffffffffffffffffffffffffffffff021916908373ffffffffffffffffffffffffffffffffffffffff1602179055506001600b600084815260200190815260200160002060040160006101000a81548160ff0219169083151502179055506000600b600084815260200190815260200160002060010160006101000a81548173ffffffffffffffffffffffffffffffffffffffff021916908373ffffffffffffffffffffffffffffffffffffffff1602179055506112c46008611c80565b6112cf303384611a19565b600a60009054906101000a900473ffffffffffffffffffffffffffffffffffffffff1673ffffffffffffffffffffffffffffffffffffffff166108fc6009549081150290604051600060405180830381858888f19350505050158015611339573d6000803e3d6000fd5b50600b600083815260200190815260200160002060010160009054906101000a900473ffffffffffffffffffffffffffffffffffffffff1673ffffffffffffffffffffffffffffffffffffffff166108fc349081150290604051600060405180830381858888f193505050501580156113b6573d6000803e3d6000fd5b505050565b60606113c682611800565b611405576040517f08c379a00000000000000000000000000000000000000000000000000000000081526004016113fc906133f2565b60405180910390fd5b600060066000848152602001908152602001600020805461142590613793565b80601f016020809104026020016040519081016040528092919081815260200182805461145190613793565b801561149e5780601f106114735761010080835404028352916020019161149e565b820191906000526020600020905b81548152906001019060200180831161148157829003601f168201915b5050505050905060006114af6122b0565b90506000815114156114c5578192505050611508565b6000825111156114fa5780826040516020016114e2929190613103565b60405160208183030381529060405292505050611508565b611503846122c7565b925050505b919050565b3373ffffffffffffffffffffffffffffffffffffffff16600b600084815260200190815260200160002060020160009054906101000a900473ffffffffffffffffffffffffffffffffffffffff1673ffffffffffffffffffffffffffffffffffffffff16146115b1576040517f08c379a00000000000000000000000000000000000000000000000000000000081526004016115a890613412565b60405180910390fd5b60095434146115f5576040517f08c379a00000000000000000000000000000000000000000000000000000000081526004016115ec906134b2565b60405180910390fd5b6000600b600084815260200190815260200160002060040160006101000a81548160ff02191690831515021790555080600b60008481526020019081526020016000206003018190555033600b600084815260200190815260200160002060010160006101000a81548173ffffffffffffffffffffffffffffffffffffffff021916908373ffffffffffffffffffffffffffffffffffffffff16021790555030600b600084815260200190815260200160002060020160006101000a81548173ffffffffffffffffffffffffffffffffffffffff021916908373ffffffffffffffffffffffffffffffffffffffff1602179055506116f3600861236e565b6116fe333084611a19565b5050565b6000600560008473ffffffffffffffffffffffffffffffffffffffff1673ffffffffffffffffffffffffffffffffffffffff16815260200190815260200160002060008373ffffffffffffffffffffffffffffffffffffffff1673ffffffffffffffffffffffffffffffffffffffff16815260200190815260200160002060009054906101000a900460ff16905092915050565b60007f01ffc9a7000000000000000000000000000000000000000000000000000000007bffffffffffffffffffffffffffffffffffffffffffffffffffffffff1916827bffffffffffffffffffffffffffffffffffffffffffffffffffffffff1916149050919050565b60008073ffffffffffffffffffffffffffffffffffffffff166002600084815260200190815260200160002060009054906101000a900473ffffffffffffffffffffffffffffffffffffffff1673ffffffffffffffffffffffffffffffffffffffff1614159050919050565b600033905090565b816004600083815260200190815260200160002060006101000a81548173ffffffffffffffffffffffffffffffffffffffff021916908373ffffffffffffffffffffffffffffffffffffffff160217905550808273ffffffffffffffffffffffffffffffffffffffff166118e783610c24565b73ffffffffffffffffffffffffffffffffffffffff167f8c5be1e5ebec7d5bd14f71427d1e84f3dd0314c0f7b2291e5b200ac8c7c3b92560405160405180910390a45050565b600081600001549050919050565b600061194682611800565b611985576040517f08c379a000000000000000000000000000000000000000000000000000000000815260040161197c90613312565b60405180910390fd5b600061199083610c24565b90508073ffffffffffffffffffffffffffffffffffffffff168473ffffffffffffffffffffffffffffffffffffffff1614806119ff57508373ffffffffffffffffffffffffffffffffffffffff166119e784610664565b73ffffffffffffffffffffffffffffffffffffffff16145b80611a105750611a0f8185611702565b5b91505092915050565b8273ffffffffffffffffffffffffffffffffffffffff16611a3982610c24565b73ffffffffffffffffffffffffffffffffffffffff1614611a8f576040517f08c379a0000000000000000000000000000000000000000000000000000000008152600401611a8690613272565b60405180910390fd5b600073ffffffffffffffffffffffffffffffffffffffff168273ffffffffffffffffffffffffffffffffffffffff161415611aff576040517f08c379a0000000000000000000000000000000000000000000000000000000008152600401611af6906132d2565b60405180910390fd5b611b0a8383836123ca565b611b15600082611874565b6001600360008573ffffffffffffffffffffffffffffffffffffffff1673ffffffffffffffffffffffffffffffffffffffff1681526020019081526020016000206000828254611b659190613697565b925050819055506001600360008473ffffffffffffffffffffffffffffffffffffffff1673ffffffffffffffffffffffffffffffffffffffff1681526020019081526020016000206000828254611bbc9190613610565b92505081905550816002600083815260200190815260200160002060006101000a81548173ffffffffffffffffffffffffffffffffffffffff021916908373ffffffffffffffffffffffffffffffffffffffff160217905550808273ffffffffffffffffffffffffffffffffffffffff168473ffffffffffffffffffffffffffffffffffffffff167fddf252ad1be2c89b69c2b068fc378daa952ba7f163c4a11628f55a4df523b3ef60405160405180910390a4611c7b8383836123cf565b505050565b6001816000016000828254019250508190555050565b600073ffffffffffffffffffffffffffffffffffffffff168273ffffffffffffffffffffffffffffffffffffffff161415611d06576040517f08c379a0000000000000000000000000000000000000000000000000000000008152600401611cfd906133d2565b60405180910390fd5b611d0f81611800565b15611d4f576040517f08c379a0000000000000000000000000000000000000000000000000000000008152600401611d4690613292565b60405180910390fd5b611d5b600083836123ca565b6001600360008473ffffffffffffffffffffffffffffffffffffffff1673ffffffffffffffffffffffffffffffffffffffff1681526020019081526020016000206000828254611dab9190613610565b92505081905550816002600083815260200190815260200160002060006101000a81548173ffffffffffffffffffffffffffffffffffffffff021916908373ffffffffffffffffffffffffffffffffffffffff160217905550808273ffffffffffffffffffffffffffffffffffffffff16600073ffffffffffffffffffffffffffffffffffffffff167fddf252ad1be2c89b69c2b068fc378daa952ba7f163c4a11628f55a4df523b3ef60405160405180910390a4611e6c600083836123cf565b5050565b611e7982611800565b611eb8576040517f08c379a0000000000000000000000000000000000000000000000000000000008152600401611eaf90613392565b60405180910390fd5b80600660008481526020019081526020016000209080519060200190611edf929190612798565b505050565b60008111611f27576040517f08c379a0000000000000000000000000000000000000000000000000000000008152600401611f1e90613472565b60405180910390fd5b6009543414611f6b576040517f08c379a0000000000000000000000000000000000000000000000000000000008152600401611f62906134b2565b60405180910390fd5b6040518060a001604052808381526020013373ffffffffffffffffffffffffffffffffffffffff1681526020013073ffffffffffffffffffffffffffffffffffffffff16815260200182815260200160001515815250600b60008481526020019081526020016000206000820151816000015560208201518160010160006101000a81548173ffffffffffffffffffffffffffffffffffffffff021916908373ffffffffffffffffffffffffffffffffffffffff16021790555060408201518160020160006101000a81548173ffffffffffffffffffffffffffffffffffffffff021916908373ffffffffffffffffffffffffffffffffffffffff1602179055506060820151816003015560808201518160040160006101000a81548160ff0219169083151502179055509050506120a4333084611a19565b817fb640004f1d14576d0c209e240cad0410e0d8c0c33a09375861fbadae2588a98d33308460006040516120db9493929190613142565b60405180910390a25050565b8173ffffffffffffffffffffffffffffffffffffffff168373ffffffffffffffffffffffffffffffffffffffff161415612156576040517f08c379a000000000000000000000000000000000000000000000000000000000815260040161214d906132f2565b60405180910390fd5b80600560008573ffffffffffffffffffffffffffffffffffffffff1673ffffffffffffffffffffffffffffffffffffffff16815260200190815260200160002060008473ffffffffffffffffffffffffffffffffffffffff1673ffffffffffffffffffffffffffffffffffffffff16815260200190815260200160002060006101000a81548160ff0219169083151502179055508173ffffffffffffffffffffffffffffffffffffffff168373ffffffffffffffffffffffffffffffffffffffff167f17307eab39ab6107e8899845ad3d59bd9653f200f220920489ca2b5937696c318360405161224791906131f5565b60405180910390a3505050565b61225f848484611a19565b61226b848484846123d4565b6122aa576040517f08c379a00000000000000000000000000000000000000000000000000000000081526004016122a190613252565b60405180910390fd5b50505050565b606060405180602001604052806000815250905090565b60606122d282611800565b612311576040517f08c379a000000000000000000000000000000000000000000000000000000000815260040161230890613452565b60405180910390fd5b600061231b6122b0565b9050600081511161233b5760405180602001604052806000815250612366565b806123458461256b565b604051602001612356929190613103565b6040516020818303038152906040525b915050919050565b600081600001549050600081116123ba576040517f08c379a00000000000000000000000000000000000000000000000000000000081526004016123b190613232565b60405180910390fd5b6001810382600001819055505050565b505050565b505050565b60006123f58473ffffffffffffffffffffffffffffffffffffffff16612718565b1561255e578373ffffffffffffffffffffffffffffffffffffffff1663150b7a0261241e61186c565b8786866040518563ffffffff1660e01b81526004016124409493929190613187565b602060405180830381600087803b15801561245a57600080fd5b505af192505050801561248b57506040513d601f19601f820116820180604052508101906124889190612b44565b60015b61250e573d80600081146124bb576040519150601f19603f3d011682016040523d82523d6000602084013e6124c0565b606091505b50600081511415612506576040517f08c379a00000000000000000000000000000000000000000000000000000000081526004016124fd90613252565b60405180910390fd5b805181602001fd5b63150b7a0260e01b7bffffffffffffffffffffffffffffffffffffffffffffffffffffffff1916817bffffffffffffffffffffffffffffffffffffffffffffffffffffffff191614915050612563565b600190505b949350505050565b606060008214156125b3576040518060400160405280600181526020017f30000000000000000000000000000000000000000000000000000000000000008152509050612713565b600082905060005b600082146125e55780806125ce906137f6565b915050600a826125de9190613666565b91506125bb565b60008167ffffffffffffffff811115612627577f4e487b7100000000000000000000000000000000000000000000000000000000600052604160045260246000fd5b6040519080825280601f01601f1916602001820160405280156126595781602001600182028036833780820191505090505b5090505b6000851461270c576001826126729190613697565b9150600a85612681919061383f565b603061268d9190613610565b60f81b8183815181106126c9577f4e487b7100000000000000000000000000000000000000000000000000000000600052603260045260246000fd5b60200101907effffffffffffffffffffffffffffffffffffffffffffffffffffffffffffff1916908160001a905350600a856127059190613666565b945061265d565b8093505050505b919050565b6000808273ffffffffffffffffffffffffffffffffffffffff163b119050919050565b6040518060a0016040528060008152602001600073ffffffffffffffffffffffffffffffffffffffff168152602001600073ffffffffffffffffffffffffffffffffffffffff168152602001600081526020016000151581525090565b8280546127a490613793565b90600052602060002090601f0160209004810192826127c6576000855561280d565b82601f106127df57805160ff191683800117855561280d565b8280016001018555821561280d579182015b8281111561280c5782518255916020019190600101906127f1565b5b50905061281a919061281e565b5090565b5b8082111561283757600081600090555060010161281f565b5090565b600061284e61284984613532565b61350d565b90508281526020810184848401111561286657600080fd5b612871848285613751565b509392505050565b600061288c61288784613563565b61350d565b9050828152602081018484840111156128a457600080fd5b6128af848285613751565b509392505050565b6000813590506128c681613f49565b92915050565b6000813590506128db81613f60565b92915050565b6000813590506128f081613f77565b92915050565b60008151905061290581613f77565b92915050565b600082601f83011261291c57600080fd5b813561292c84826020860161283b565b91505092915050565b600082601f83011261294657600080fd5b8135612956848260208601612879565b91505092915050565b60008135905061296e81613f8e565b92915050565b60006020828403121561298657600080fd5b6000612994848285016128b7565b91505092915050565b600080604083850312156129b057600080fd5b60006129be858286016128b7565b92505060206129cf858286016128b7565b9150509250929050565b6000806000606084860312156129ee57600080fd5b60006129fc868287016128b7565b9350506020612a0d868287016128b7565b9250506040612a1e8682870161295f565b9150509250925092565b60008060008060808587031215612a3e57600080fd5b6000612a4c878288016128b7565b9450506020612a5d878288016128b7565b9350506040612a6e8782880161295f565b925050606085013567ffffffffffffffff811115612a8b57600080fd5b612a978782880161290b565b91505092959194509250565b60008060408385031215612ab657600080fd5b6000612ac4858286016128b7565b9250506020612ad5858286016128cc565b9150509250929050565b60008060408385031215612af257600080fd5b6000612b00858286016128b7565b9250506020612b118582860161295f565b9150509250929050565b600060208284031215612b2d57600080fd5b6000612b3b848285016128e1565b91505092915050565b600060208284031215612b5657600080fd5b6000612b64848285016128f6565b91505092915050565b60008060408385031215612b8057600080fd5b600083013567ffffffffffffffff811115612b9a57600080fd5b612ba685828601612935565b9250506020612bb78582860161295f565b9150509250929050565b600060208284031215612bd357600080fd5b6000612be18482850161295f565b91505092915050565b60008060408385031215612bfd57600080fd5b6000612c0b8582860161295f565b9250506020612c1c8582860161295f565b9150509250929050565b6000612c32838361307d565b60a08301905092915050565b612c47816136dd565b82525050565b612c56816136cb565b82525050565b6000612c67826135a4565b612c7181856135d2565b9350612c7c83613594565b8060005b83811015612cad578151612c948882612c26565b9750612c9f836135c5565b925050600181019050612c80565b5085935050505092915050565b612cc3816136ef565b82525050565b612cd2816136ef565b82525050565b6000612ce3826135af565b612ced81856135e3565b9350612cfd818560208601613760565b612d068161392c565b840191505092915050565b6000612d1c826135ba565b612d2681856135f4565b9350612d36818560208601613760565b612d3f8161392c565b840191505092915050565b6000612d55826135ba565b612d5f8185613605565b9350612d6f818560208601613760565b80840191505092915050565b6000612d88601b836135f4565b9150612d938261393d565b602082019050919050565b6000612dab6032836135f4565b9150612db682613966565b604082019050919050565b6000612dce6025836135f4565b9150612dd9826139b5565b604082019050919050565b6000612df1601c836135f4565b9150612dfc82613a04565b602082019050919050565b6000612e146033836135f4565b9150612e1f82613a2d565b604082019050919050565b6000612e376024836135f4565b9150612e4282613a7c565b604082019050919050565b6000612e5a6019836135f4565b9150612e6582613acb565b602082019050919050565b6000612e7d602c836135f4565b9150612e8882613af4565b604082019050919050565b6000612ea06038836135f4565b9150612eab82613b43565b604082019050919050565b6000612ec3602a836135f4565b9150612ece82613b92565b604082019050919050565b6000612ee66029836135f4565b9150612ef182613be1565b604082019050919050565b6000612f09602e836135f4565b9150612f1482613c30565b604082019050919050565b6000612f2c6040836135f4565b9150612f3782613c7f565b604082019050919050565b6000612f4f6020836135f4565b9150612f5a82613cce565b602082019050919050565b6000612f726031836135f4565b9150612f7d82613cf7565b604082019050919050565b6000612f95602a836135f4565b9150612fa082613d46565b604082019050919050565b6000612fb8602c836135f4565b9150612fc382613d95565b604082019050919050565b6000612fdb602f836135f4565b9150612fe682613de4565b604082019050919050565b6000612ffe6018836135f4565b915061300982613e33565b602082019050919050565b60006130216021836135f4565b915061302c82613e5c565b604082019050919050565b60006130446024836135f4565b915061304f82613eab565b604082019050919050565b60006130676031836135f4565b915061307282613efa565b604082019050919050565b60a08201600082015161309360008501826130e5565b5060208201516130a66020850182612c3e565b5060408201516130b96040850182612c3e565b5060608201516130cc60608501826130e5565b5060808201516130df6080850182612cba565b50505050565b6130ee81613747565b82525050565b6130fd81613747565b82525050565b600061310f8285612d4a565b915061311b8284612d4a565b91508190509392505050565b600060208201905061313c6000830184612c4d565b92915050565b60006080820190506131576000830187612c4d565b6131646020830186612c4d565b61317160408301856130f4565b61317e6060830184612cc9565b95945050505050565b600060808201905061319c6000830187612c4d565b6131a96020830186612c4d565b6131b660408301856130f4565b81810360608301526131c88184612cd8565b905095945050505050565b600060208201905081810360008301526131ed8184612c5c565b905092915050565b600060208201905061320a6000830184612cc9565b92915050565b6000602082019050818103600083015261322a8184612d11565b905092915050565b6000602082019050818103600083015261324b81612d7b565b9050919050565b6000602082019050818103600083015261326b81612d9e565b9050919050565b6000602082019050818103600083015261328b81612dc1565b9050919050565b600060208201905081810360008301526132ab81612de4565b9050919050565b600060208201905081810360008301526132cb81612e07565b9050919050565b600060208201905081810360008301526132eb81612e2a565b9050919050565b6000602082019050818103600083015261330b81612e4d565b9050919050565b6000602082019050818103600083015261332b81612e70565b9050919050565b6000602082019050818103600083015261334b81612e93565b9050919050565b6000602082019050818103600083015261336b81612eb6565b9050919050565b6000602082019050818103600083015261338b81612ed9565b9050919050565b600060208201905081810360008301526133ab81612efc565b9050919050565b600060208201905081810360008301526133cb81612f1f565b9050919050565b600060208201905081810360008301526133eb81612f42565b9050919050565b6000602082019050818103600083015261340b81612f65565b9050919050565b6000602082019050818103600083015261342b81612f88565b9050919050565b6000602082019050818103600083015261344b81612fab565b9050919050565b6000602082019050818103600083015261346b81612fce565b9050919050565b6000602082019050818103600083015261348b81612ff1565b9050919050565b600060208201905081810360008301526134ab81613014565b9050919050565b600060208201905081810360008301526134cb81613037565b9050919050565b600060208201905081810360008301526134eb8161305a565b9050919050565b600060208201905061350760008301846130f4565b92915050565b6000613517613528565b905061352382826137c5565b919050565b6000604051905090565b600067ffffffffffffffff82111561354d5761354c6138fd565b5b6135568261392c565b9050602081019050919050565b600067ffffffffffffffff82111561357e5761357d6138fd565b5b6135878261392c565b9050602081019050919050565b6000819050602082019050919050565b600081519050919050565b600081519050919050565b600081519050919050565b6000602082019050919050565b600082825260208201905092915050565b600082825260208201905092915050565b600082825260208201905092915050565b600081905092915050565b600061361b82613747565b915061362683613747565b9250827fffffffffffffffffffffffffffffffffffffffffffffffffffffffffffffffff0382111561365b5761365a613870565b5b828201905092915050565b600061367182613747565b915061367c83613747565b92508261368c5761368b61389f565b5b828204905092915050565b60006136a282613747565b91506136ad83613747565b9250828210156136c0576136bf613870565b5b828203905092915050565b60006136d682613727565b9050919050565b60006136e882613727565b9050919050565b60008115159050919050565b60007fffffffff0000000000000000000000000000000000000000000000000000000082169050919050565b600073ffffffffffffffffffffffffffffffffffffffff82169050919050565b6000819050919050565b82818337600083830152505050565b60005b8381101561377e578082015181840152602081019050613763565b8381111561378d576000848401525b50505050565b600060028204905060018216806137ab57607f821691505b602082108114156137bf576137be6138ce565b5b50919050565b6137ce8261392c565b810181811067ffffffffffffffff821117156137ed576137ec6138fd565b5b80604052505050565b600061380182613747565b91507fffffffffffffffffffffffffffffffffffffffffffffffffffffffffffffffff82141561383457613833613870565b5b600182019050919050565b600061384a82613747565b915061385583613747565b9250826138655761386461389f565b5b828206905092915050565b7f4e487b7100000000000000000000000000000000000000000000000000000000600052601160045260246000fd5b7f4e487b7100000000000000000000000000000000000000000000000000000000600052601260045260246000fd5b7f4e487b7100000000000000000000000000000000000000000000000000000000600052602260045260246000fd5b7f4e487b7100000000000000000000000000000000000000000000000000000000600052604160045260246000fd5b6000601f19601f8301169050919050565b7f436f756e7465723a2064656372656d656e74206f766572666c6f770000000000600082015250565b7f4552433732313a207472616e7366657220746f206e6f6e20455243373231526560008201527f63656976657220696d706c656d656e7465720000000000000000000000000000602082015250565b7f4552433732313a207472616e736665722066726f6d20696e636f72726563742060008201527f6f776e6572000000000000000000000000000000000000000000000000000000602082015250565b7f4552433732313a20746f6b656e20616c7265616479206d696e74656400000000600082015250565b7f4f6e6c79206d61726b6574706c616365206f776e65722063616e20757064617460008201527f6520746865206c697374696e6720707269636500000000000000000000000000602082015250565b7f4552433732313a207472616e7366657220746f20746865207a65726f2061646460008201527f7265737300000000000000000000000000000000000000000000000000000000602082015250565b7f4552433732313a20617070726f766520746f2063616c6c657200000000000000600082015250565b7f4552433732313a206f70657261746f7220717565727920666f72206e6f6e657860008201527f697374656e7420746f6b656e0000000000000000000000000000000000000000602082015250565b7f4552433732313a20617070726f76652063616c6c6572206973206e6f74206f7760008201527f6e6572206e6f7220617070726f76656420666f7220616c6c0000000000000000602082015250565b7f4552433732313a2062616c616e636520717565727920666f7220746865207a6560008201527f726f206164647265737300000000000000000000000000000000000000000000602082015250565b7f4552433732313a206f776e657220717565727920666f72206e6f6e657869737460008201527f656e7420746f6b656e0000000000000000000000000000000000000000000000602082015250565b7f45524337323155524953746f726167653a2055524920736574206f66206e6f6e60008201527f6578697374656e7420746f6b656e000000000000000000000000000000000000602082015250565b7f506c65617365207375626d6974207468652061736b696e67207072696365206960008201527f6e206f7264657220746f20636f6d706c65746520746865207075726368617365602082015250565b7f4552433732313a206d696e7420746f20746865207a65726f2061646472657373600082015250565b7f45524337323155524953746f726167653a2055524920717565727920666f722060008201527f6e6f6e6578697374656e7420746f6b656e000000000000000000000000000000602082015250565b7f4f6e6c79206974656d206f776e65722063616e20706572666f726d207468697360008201527f206f7065726174696f6e00000000000000000000000000000000000000000000602082015250565b7f4552433732313a20617070726f76656420717565727920666f72206e6f6e657860008201527f697374656e7420746f6b656e0000000000000000000000000000000000000000602082015250565b7f4552433732314d657461646174613a2055524920717565727920666f72206e6f60008201527f6e6578697374656e7420746f6b656e0000000000000000000000000000000000602082015250565b7f5072696365206d757374206265206174206c6561737420310000000000000000600082015250565b7f4552433732313a20617070726f76616c20746f2063757272656e74206f776e6560008201527f7200000000000000000000000000000000000000000000000000000000000000602082015250565b7f5072696365206d75737420626520657175616c20746f206c697374696e67207060008201527f7269636500000000000000000000000000000000000000000000000000000000602082015250565b7f4552433732313a207472616e736665722063616c6c6572206973206e6f74206f60008201527f776e6572206e6f7220617070726f766564000000000000000000000000000000602082015250565b613f52816136cb565b8114613f5d57600080fd5b50565b613f69816136ef565b8114613f7457600080fd5b50565b613f80816136fb565b8114613f8b57600080fd5b50565b613f9781613747565b8114613fa257600080fd5b5056fea264697066735822122059bc364950ac1ab377e36ef9350f97ba99ae2e1baf5418a61243d9030aebeb5e64736f6c63430008040033",
  "linkReferences": {},
  "deployedLinkReferences": {}
}